{
  "_format": "hh-sol-artifact-1",
  "contractName": "GrampsCare",
  "sourceName": "contracts/GrampsCare.sol",
  "abi": [
    {
      "inputs": [],
      "stateMutability": "nonpayable",
      "type": "constructor"
    },
    {
      "inputs": [
        {
          "internalType": "uint256",
          "name": "limit",
          "type": "uint256"
        },
        {
          "internalType": "uint256",
          "name": "spent",
          "type": "uint256"
        }
      ],
      "name": "DailyLimitExceeded",
      "type": "error"
    },
    {
      "inputs": [],
      "name": "DocumentAlreadyRegistered",
      "type": "error"
    },
    {
      "inputs": [],
      "name": "InsufficientFunds",
      "type": "error"
    },
    {
      "inputs": [],
      "name": "NotAuthorized",
      "type": "error"
    },
    {
      "inputs": [],
      "name": "NotCaregiver",
      "type": "error"
    },
    {
      "inputs": [],
      "name": "ReentrancyGuardReentrantCall",
      "type": "error"
    },
    {
      "inputs": [],
      "name": "TransferFailed",
      "type": "error"
    },
    {
      "anonymous": false,
      "inputs": [
        {
          "indexed": true,
          "internalType": "address",
          "name": "caregiver",
          "type": "address"
        }
      ],
      "name": "CaregiverAdded",
      "type": "event"
    },
    {
      "anonymous": false,
      "inputs": [
        {
          "indexed": true,
          "internalType": "address",
          "name": "caregiver",
          "type": "address"
        }
      ],
      "name": "CaregiverRemoved",
      "type": "event"
    },
    {
      "anonymous": false,
      "inputs": [
        {
          "indexed": true,
          "internalType": "address",
          "name": "from",
          "type": "address"
        },
        {
          "indexed": false,
          "internalType": "uint256",
          "name": "amount",
          "type": "uint256"
        }
      ],
      "name": "Deposit",
      "type": "event"
    },
    {
      "anonymous": false,
      "inputs": [
        {
          "indexed": true,
          "internalType": "bytes32",
          "name": "docHash",
          "type": "bytes32"
        },
        {
          "indexed": false,
          "internalType": "string",
          "name": "category",
          "type": "string"
        },
        {
          "indexed": false,
          "internalType": "uint256",
          "name": "timestamp",
          "type": "uint256"
        }
      ],
      "name": "DocumentRegistered",
      "type": "event"
    },
    {
      "anonymous": false,
      "inputs": [
        {
          "indexed": true,
          "internalType": "address",
          "name": "caregiver",
          "type": "address"
        },
        {
          "indexed": true,
          "internalType": "address",
          "name": "recipient",
          "type": "address"
        },
        {
          "indexed": false,
          "internalType": "uint256",
          "name": "amount",
          "type": "uint256"
        },
        {
          "indexed": false,
          "internalType": "string",
          "name": "reason",
          "type": "string"
        }
      ],
      "name": "ExpensePaid",
      "type": "event"
    },
    {
      "inputs": [],
      "name": "DEFAULT_DAILY_LIMIT",
      "outputs": [
        {
          "internalType": "uint256",
          "name": "",
          "type": "uint256"
        }
      ],
      "stateMutability": "view",
      "type": "function"
    },
    {
      "inputs": [
        {
          "internalType": "address",
          "name": "_caregiver",
          "type": "address"
        }
      ],
      "name": "addCaregiver",
      "outputs": [],
      "stateMutability": "nonpayable",
      "type": "function"
    },
    {
      "inputs": [
        {
          "internalType": "address",
          "name": "",
          "type": "address"
        }
      ],
      "name": "caregivers",
      "outputs": [
        {
          "internalType": "bool",
          "name": "",
          "type": "bool"
        }
      ],
      "stateMutability": "view",
      "type": "function"
    },
    {
      "inputs": [
        {
          "internalType": "address",
          "name": "",
          "type": "address"
        }
      ],
      "name": "dailyLimits",
      "outputs": [
        {
          "internalType": "uint256",
          "name": "",
          "type": "uint256"
        }
      ],
      "stateMutability": "view",
      "type": "function"
    },
    {
      "inputs": [
        {
          "internalType": "address",
          "name": "",
          "type": "address"
        },
        {
          "internalType": "uint256",
          "name": "",
          "type": "uint256"
        }
      ],
      "name": "dailySpent",
      "outputs": [
        {
          "internalType": "uint256",
          "name": "",
          "type": "uint256"
        }
      ],
      "stateMutability": "view",
      "type": "function"
    },
    {
      "inputs": [
        {
          "internalType": "bytes32",
          "name": "",
          "type": "bytes32"
        }
      ],
      "name": "documentRegistry",
      "outputs": [
        {
          "internalType": "uint256",
          "name": "",
          "type": "uint256"
        }
      ],
      "stateMutability": "view",
      "type": "function"
    },
    {
      "inputs": [],
      "name": "owner",
      "outputs": [
        {
          "internalType": "address",
          "name": "",
          "type": "address"
        }
      ],
      "stateMutability": "view",
      "type": "function"
    },
    {
      "inputs": [
        {
          "internalType": "address payable",
          "name": "_to",
          "type": "address"
        },
        {
          "internalType": "uint256",
          "name": "_amount",
          "type": "uint256"
        },
        {
          "internalType": "string",
          "name": "_reason",
          "type": "string"
        }
      ],
      "name": "payExpense",
      "outputs": [],
      "stateMutability": "nonpayable",
      "type": "function"
    },
    {
      "inputs": [
        {
          "internalType": "bytes32",
          "name": "_docHash",
          "type": "bytes32"
        },
        {
          "internalType": "string",
          "name": "_category",
          "type": "string"
        }
      ],
      "name": "registerDocument",
      "outputs": [],
      "stateMutability": "nonpayable",
      "type": "function"
    },
    {
      "inputs": [
        {
          "internalType": "address",
          "name": "_caregiver",
          "type": "address"
        }
      ],
      "name": "removeCaregiver",
      "outputs": [],
      "stateMutability": "nonpayable",
      "type": "function"
    },
    {
      "inputs": [
        {
          "internalType": "address",
          "name": "_caregiver",
          "type": "address"
        },
        {
          "internalType": "uint256",
          "name": "_limit",
          "type": "uint256"
        }
      ],
      "name": "setDailyLimit",
      "outputs": [],
      "stateMutability": "nonpayable",
      "type": "function"
    },
    {
      "inputs": [
        {
          "internalType": "bytes32",
          "name": "_docHash",
          "type": "bytes32"
        }
      ],
      "name": "verifyDocument",
      "outputs": [
        {
          "internalType": "bool",
          "name": "exists",
          "type": "bool"
        },
        {
          "internalType": "uint256",
          "name": "timestamp",
          "type": "uint256"
        }
      ],
      "stateMutability": "view",
      "type": "function"
    },
    {
      "stateMutability": "payable",
      "type": "receive"
    }
  ],
  "bytecode": "0x608060405234801561001057600080fd5b50600160008190555033600160006101000a81548173ffffffffffffffffffffffffffffffffffffffff021916908373ffffffffffffffffffffffffffffffffffffffff1602179055503373ffffffffffffffffffffffffffffffffffffffff167fd50622eea19d594e0a1099e5e4095875b853c59ea070e69e0aee7696b2096f4160405160405180910390a2683635c9adc5dea00000600460003373ffffffffffffffffffffffffffffffffffffffff1673ffffffffffffffffffffffffffffffffffffffff1681526020019081526020016000208190555061138e806100f96000396000f3fe6080604052600436106100ab5760003560e01c80639df75435116100645780639df7543514610225578063a437a40d1461024e578063aecbdfd71461028b578063d7bffc92146102b6578063fa17185a146102f3578063fe35089f1461031c57610100565b806325af87c7146101055780632803212f1461012e578063633a109f14610157578063818561ea146101805780638da5cb5b146101bd5780639061a57f146101e857610100565b36610100573373ffffffffffffffffffffffffffffffffffffffff167fe1fffcc4923d04b559f4d29a8bfc6cda04eb5b0d3c460751c2402c5c5cc9109c346040516100f69190610de5565b60405180910390a2005b600080fd5b34801561011157600080fd5b5061012c60048036038101906101279190610e68565b61035a565b005b34801561013a57600080fd5b5061015560048036038101906101509190610ec1565b6104c4565b005b34801561016357600080fd5b5061017e60048036038101906101799190610fa4565b610593565b005b34801561018c57600080fd5b506101a760048036038101906101a29190610e68565b6109ba565b6040516101b49190611033565b60405180910390f35b3480156101c957600080fd5b506101d26109da565b6040516101df919061105d565b60405180910390f35b3480156101f457600080fd5b5061020f600480360381019061020a9190610ec1565b610a00565b60405161021c9190610de5565b60405180910390f35b34801561023157600080fd5b5061024c60048036038101906102479190610e68565b610a25565b005b34801561025a57600080fd5b50610275600480360381019061027091906110ae565b610b96565b6040516102829190610de5565b60405180910390f35b34801561029757600080fd5b506102a0610bae565b6040516102ad9190610de5565b60405180910390f35b3480156102c257600080fd5b506102dd60048036038101906102d89190610e68565b610bba565b6040516102ea9190610de5565b60405180910390f35b3480156102ff57600080fd5b5061031a600480360381019061031591906110db565b610bd2565b005b34801561032857600080fd5b50610343600480360381019061033e91906110ae565b610d57565b60405161035192919061113b565b60405180910390f35b600160009054906101000a900473ffffffffffffffffffffffffffffffffffffffff1673ffffffffffffffffffffffffffffffffffffffff163373ffffffffffffffffffffffffffffffffffffffff16146103e1576040517fea8e4eb500000000000000000000000000000000000000000000000000000000815260040160405180910390fd5b6000600260008373ffffffffffffffffffffffffffffffffffffffff1673ffffffffffffffffffffffffffffffffffffffff16815260200190815260200160002060006101000a81548160ff0219169083151502179055506000600460008373ffffffffffffffffffffffffffffffffffffffff1673ffffffffffffffffffffffffffffffffffffffff168152602001908152602001600020819055508073ffffffffffffffffffffffffffffffffffffffff167f994d06af08ac642a3b4ad5ff405ddce317e64b6e629846b0cc2865e06878495b60405160405180910390a250565b600160009054906101000a900473ffffffffffffffffffffffffffffffffffffffff1673ffffffffffffffffffffffffffffffffffffffff163373ffffffffffffffffffffffffffffffffffffffff161461054b576040517fea8e4eb500000000000000000000000000000000000000000000000000000000815260040160405180910390fd5b80600460008473ffffffffffffffffffffffffffffffffffffffff1673ffffffffffffffffffffffffffffffffffffffff168152602001908152602001600020819055505050565b600260003373ffffffffffffffffffffffffffffffffffffffff1673ffffffffffffffffffffffffffffffffffffffff16815260200190815260200160002060009054906101000a900460ff1615801561063b5750600160009054906101000a900473ffffffffffffffffffffffffffffffffffffffff1673ffffffffffffffffffffffffffffffffffffffff163373ffffffffffffffffffffffffffffffffffffffff1614155b15610672576040517f9283f44c00000000000000000000000000000000000000000000000000000000815260040160405180910390fd5b61067a610d7c565b824710156106b4576040517f356680b700000000000000000000000000000000000000000000000000000000815260040160405180910390fd5b600062015180426106c591906111c2565b9050600460003373ffffffffffffffffffffffffffffffffffffffff1673ffffffffffffffffffffffffffffffffffffffff1681526020019081526020016000205484600560003373ffffffffffffffffffffffffffffffffffffffff1673ffffffffffffffffffffffffffffffffffffffff16815260200190815260200160002060008481526020019081526020016000205461076391906111f3565b111561083757600460003373ffffffffffffffffffffffffffffffffffffffff1673ffffffffffffffffffffffffffffffffffffffff16815260200190815260200160002054600560003373ffffffffffffffffffffffffffffffffffffffff1673ffffffffffffffffffffffffffffffffffffffff1681526020019081526020016000206000838152602001908152602001600020546040517fef664d6a00000000000000000000000000000000000000000000000000000000815260040161082e929190611227565b60405180910390fd5b83600560003373ffffffffffffffffffffffffffffffffffffffff1673ffffffffffffffffffffffffffffffffffffffff1681526020019081526020016000206000838152602001908152602001600020600082825461089791906111f3565b9250508190555060008573ffffffffffffffffffffffffffffffffffffffff16856040516108c490611281565b60006040518083038185875af1925050503d8060008114610901576040519150601f19603f3d011682016040523d82523d6000602084013e610906565b606091505b5050905080610941576040517f90b8ec1800000000000000000000000000000000000000000000000000000000815260040160405180910390fd5b8573ffffffffffffffffffffffffffffffffffffffff163373ffffffffffffffffffffffffffffffffffffffff167f405361271b30f2c0cd619975fd8b67c795661b1f2d1e75f446622c897425ce9e8787876040516109a2939291906112f4565b60405180910390a350506109b4610dc2565b50505050565b60026020528060005260406000206000915054906101000a900460ff1681565b600160009054906101000a900473ffffffffffffffffffffffffffffffffffffffff1681565b6005602052816000526040600020602052806000526040600020600091509150505481565b600160009054906101000a900473ffffffffffffffffffffffffffffffffffffffff1673ffffffffffffffffffffffffffffffffffffffff163373ffffffffffffffffffffffffffffffffffffffff1614610aac576040517fea8e4eb500000000000000000000000000000000000000000000000000000000815260040160405180910390fd5b6001600260008373ffffffffffffffffffffffffffffffffffffffff1673ffffffffffffffffffffffffffffffffffffffff16815260200190815260200160002060006101000a81548160ff0219169083151502179055506706f05b59d3b20000600460008373ffffffffffffffffffffffffffffffffffffffff1673ffffffffffffffffffffffffffffffffffffffff168152602001908152602001600020819055508073ffffffffffffffffffffffffffffffffffffffff167fd50622eea19d594e0a1099e5e4095875b853c59ea070e69e0aee7696b2096f4160405160405180910390a250565b60036020528060005260406000206000915090505481565b6706f05b59d3b2000081565b60046020528060005260406000206000915090505481565b600260003373ffffffffffffffffffffffffffffffffffffffff1673ffffffffffffffffffffffffffffffffffffffff16815260200190815260200160002060009054906101000a900460ff16158015610c7a5750600160009054906101000a900473ffffffffffffffffffffffffffffffffffffffff1673ffffffffffffffffffffffffffffffffffffffff163373ffffffffffffffffffffffffffffffffffffffff1614155b15610cb1576040517f9283f44c00000000000000000000000000000000000000000000000000000000815260040160405180910390fd5b6000600360008581526020019081526020016000205414610cfe576040517f8d7ef8e000000000000000000000000000000000000000000000000000000000815260040160405180910390fd5b426003600085815260200190815260200160002081905550827f92e2a9ca6a9ddb258b3e09f11c7658152fa03947b7f2177af8ce387060962812838342604051610d4a93929190611326565b60405180910390a2505050565b6000806003600084815260200190815260200160002054905060008114159150915091565b600260005403610db8576040517f3ee5aeb500000000000000000000000000000000000000000000000000000000815260040160405180910390fd5b6002600081905550565b6001600081905550565b6000819050919050565b610ddf81610dcc565b82525050565b6000602082019050610dfa6000830184610dd6565b92915050565b600080fd5b600080fd5b600073ffffffffffffffffffffffffffffffffffffffff82169050919050565b6000610e3582610e0a565b9050919050565b610e4581610e2a565b8114610e5057600080fd5b50565b600081359050610e6281610e3c565b92915050565b600060208284031215610e7e57610e7d610e00565b5b6000610e8c84828501610e53565b91505092915050565b610e9e81610dcc565b8114610ea957600080fd5b50565b600081359050610ebb81610e95565b92915050565b60008060408385031215610ed857610ed7610e00565b5b6000610ee685828601610e53565b9250506020610ef785828601610eac565b9150509250929050565b6000610f0c82610e0a565b9050919050565b610f1c81610f01565b8114610f2757600080fd5b50565b600081359050610f3981610f13565b92915050565b600080fd5b600080fd5b600080fd5b60008083601f840112610f6457610f63610f3f565b5b8235905067ffffffffffffffff811115610f8157610f80610f44565b5b602083019150836001820283011115610f9d57610f9c610f49565b5b9250929050565b60008060008060608587031215610fbe57610fbd610e00565b5b6000610fcc87828801610f2a565b9450506020610fdd87828801610eac565b935050604085013567ffffffffffffffff811115610ffe57610ffd610e05565b5b61100a87828801610f4e565b925092505092959194509250565b60008115159050919050565b61102d81611018565b82525050565b60006020820190506110486000830184611024565b92915050565b61105781610e2a565b82525050565b6000602082019050611072600083018461104e565b92915050565b6000819050919050565b61108b81611078565b811461109657600080fd5b50565b6000813590506110a881611082565b92915050565b6000602082840312156110c4576110c3610e00565b5b60006110d284828501611099565b91505092915050565b6000806000604084860312156110f4576110f3610e00565b5b600061110286828701611099565b935050602084013567ffffffffffffffff81111561112357611122610e05565b5b61112f86828701610f4e565b92509250509250925092565b60006040820190506111506000830185611024565b61115d6020830184610dd6565b9392505050565b7f4e487b7100000000000000000000000000000000000000000000000000000000600052601260045260246000fd5b7f4e487b7100000000000000000000000000000000000000000000000000000000600052601160045260246000fd5b60006111cd82610dcc565b91506111d883610dcc565b9250826111e8576111e7611164565b5b828204905092915050565b60006111fe82610dcc565b915061120983610dcc565b925082820190508082111561122157611220611193565b5b92915050565b600060408201905061123c6000830185610dd6565b6112496020830184610dd6565b9392505050565b600081905092915050565b50565b600061126b600083611250565b91506112768261125b565b600082019050919050565b600061128c8261125e565b9150819050919050565b600082825260208201905092915050565b82818337600083830152505050565b6000601f19601f8301169050919050565b60006112d38385611296565b93506112e08385846112a7565b6112e9836112b6565b840190509392505050565b60006040820190506113096000830186610dd6565b818103602083015261131c8184866112c7565b9050949350505050565b600060408201905081810360008301526113418185876112c7565b90506113506020830184610dd6565b94935050505056fea26469706673582212201dfc2fef96a997edb086f98667ef47b1e1e4b351a46dc3d7eba84c7a96f4775664736f6c63430008140033",
  "linkReferences": {},
  "deployedLinkReferences": {}
}