{
  "_format": "hh-sol-artifact-1",
  "contractName": "GrampsCare",
  "sourceName": "contracts/GrampsCare.sol",
  "abi": [
    {
      "inputs": [],
      "stateMutability": "nonpayable",
      "type": "constructor"
    },
    {
      "anonymous": false,
      "inputs": [
        {
          "indexed": true,
          "internalType": "address",
          "name": "caregiver",
          "type": "address"
        }
      ],
      "name": "CaregiverAdded",
      "type": "event"
    },
    {
      "anonymous": false,
      "inputs": [
        {
          "indexed": true,
          "internalType": "address",
          "name": "caregiver",
          "type": "address"
        }
      ],
      "name": "CaregiverRemoved",
      "type": "event"
    },
    {
      "anonymous": false,
      "inputs": [
        {
          "indexed": true,
          "internalType": "address",
          "name": "from",
          "type": "address"
        },
        {
          "indexed": false,
          "internalType": "uint256",
          "name": "amount",
          "type": "uint256"
        }
      ],
      "name": "Deposit",
      "type": "event"
    },
    {
      "anonymous": false,
      "inputs": [
        {
          "indexed": true,
          "internalType": "bytes32",
          "name": "docHash",
          "type": "bytes32"
        },
        {
          "indexed": false,
          "internalType": "string",
          "name": "category",
          "type": "string"
        },
        {
          "indexed": false,
          "internalType": "uint256",
          "name": "timestamp",
          "type": "uint256"
        }
      ],
      "name": "DocumentRegistered",
      "type": "event"
    },
    {
      "anonymous": false,
      "inputs": [
        {
          "indexed": true,
          "internalType": "address",
          "name": "caregiver",
          "type": "address"
        },
        {
          "indexed": true,
          "internalType": "address",
          "name": "recipient",
          "type": "address"
        },
        {
          "indexed": false,
          "internalType": "uint256",
          "name": "amount",
          "type": "uint256"
        },
        {
          "indexed": false,
          "internalType": "string",
          "name": "reason",
          "type": "string"
        }
      ],
      "name": "ExpensePaid",
      "type": "event"
    },
    {
      "inputs": [
        {
          "internalType": "address",
          "name": "_caregiver",
          "type": "address"
        }
      ],
      "name": "addCaregiver",
      "outputs": [],
      "stateMutability": "nonpayable",
      "type": "function"
    },
    {
      "inputs": [
        {
          "internalType": "address",
          "name": "",
          "type": "address"
        }
      ],
      "name": "caregivers",
      "outputs": [
        {
          "internalType": "bool",
          "name": "",
          "type": "bool"
        }
      ],
      "stateMutability": "view",
      "type": "function"
    },
    {
      "inputs": [
        {
          "internalType": "bytes32",
          "name": "",
          "type": "bytes32"
        }
      ],
      "name": "documentRegistry",
      "outputs": [
        {
          "internalType": "uint256",
          "name": "",
          "type": "uint256"
        }
      ],
      "stateMutability": "view",
      "type": "function"
    },
    {
      "inputs": [],
      "name": "owner",
      "outputs": [
        {
          "internalType": "address",
          "name": "",
          "type": "address"
        }
      ],
      "stateMutability": "view",
      "type": "function"
    },
    {
      "inputs": [
        {
          "internalType": "address payable",
          "name": "_to",
          "type": "address"
        },
        {
          "internalType": "uint256",
          "name": "_amount",
          "type": "uint256"
        },
        {
          "internalType": "string",
          "name": "_reason",
          "type": "string"
        }
      ],
      "name": "payExpense",
      "outputs": [],
      "stateMutability": "nonpayable",
      "type": "function"
    },
    {
      "inputs": [
        {
          "internalType": "bytes32",
          "name": "_docHash",
          "type": "bytes32"
        },
        {
          "internalType": "string",
          "name": "_category",
          "type": "string"
        }
      ],
      "name": "registerDocument",
      "outputs": [],
      "stateMutability": "nonpayable",
      "type": "function"
    },
    {
      "inputs": [
        {
          "internalType": "address",
          "name": "_caregiver",
          "type": "address"
        }
      ],
      "name": "removeCaregiver",
      "outputs": [],
      "stateMutability": "nonpayable",
      "type": "function"
    },
    {
      "inputs": [
        {
          "internalType": "bytes32",
          "name": "_docHash",
          "type": "bytes32"
        }
      ],
      "name": "verifyDocument",
      "outputs": [
        {
          "internalType": "bool",
          "name": "exists",
          "type": "bool"
        },
        {
          "internalType": "uint256",
          "name": "timestamp",
          "type": "uint256"
        }
      ],
      "stateMutability": "view",
      "type": "function"
    },
    {
      "stateMutability": "payable",
      "type": "receive"
    }
  ],
  "bytecode": "0x608060405234801561001057600080fd5b50336000806101000a81548173ffffffffffffffffffffffffffffffffffffffff021916908373ffffffffffffffffffffffffffffffffffffffff1602179055503373ffffffffffffffffffffffffffffffffffffffff167fd50622eea19d594e0a1099e5e4095875b853c59ea070e69e0aee7696b2096f4160405160405180910390a2610ea4806100a36000396000f3fe60806040526004361061007f5760003560e01c80639df754351161004e5780639df7543514610193578063a437a40d146101bc578063fa17185a146101f9578063fe35089f14610222576100d4565b806325af87c7146100d9578063633a109f14610102578063818561ea1461012b5780638da5cb5b14610168576100d4565b366100d4573373ffffffffffffffffffffffffffffffffffffffff167fe1fffcc4923d04b559f4d29a8bfc6cda04eb5b0d3c460751c2402c5c5cc9109c346040516100ca91906108bd565b60405180910390a2005b600080fd5b3480156100e557600080fd5b5061010060048036038101906100fb9190610940565b610260565b005b34801561010e57600080fd5b5061012960048036038101906101249190610a3c565b61038c565b005b34801561013757600080fd5b50610152600480360381019061014d9190610940565b610567565b60405161015f9190610acb565b60405180910390f35b34801561017457600080fd5b5061017d610587565b60405161018a9190610af5565b60405180910390f35b34801561019f57600080fd5b506101ba60048036038101906101b59190610940565b6105ab565b005b3480156101c857600080fd5b506101e360048036038101906101de9190610b46565b6106d6565b6040516101f091906108bd565b60405180910390f35b34801561020557600080fd5b50610220600480360381019061021b9190610b73565b6106ee565b005b34801561022e57600080fd5b5061024960048036038101906102449190610b46565b61087f565b604051610257929190610bd3565b60405180910390f35b60008054906101000a900473ffffffffffffffffffffffffffffffffffffffff1673ffffffffffffffffffffffffffffffffffffffff163373ffffffffffffffffffffffffffffffffffffffff16146102ee576040517f08c379a00000000000000000000000000000000000000000000000000000000081526004016102e590610c59565b60405180910390fd5b6000600160008373ffffffffffffffffffffffffffffffffffffffff1673ffffffffffffffffffffffffffffffffffffffff16815260200190815260200160002060006101000a81548160ff0219169083151502179055508073ffffffffffffffffffffffffffffffffffffffff167f994d06af08ac642a3b4ad5ff405ddce317e64b6e629846b0cc2865e06878495b60405160405180910390a250565b600160003373ffffffffffffffffffffffffffffffffffffffff1673ffffffffffffffffffffffffffffffffffffffff16815260200190815260200160002060009054906101000a900460ff168061042f575060008054906101000a900473ffffffffffffffffffffffffffffffffffffffff1673ffffffffffffffffffffffffffffffffffffffff163373ffffffffffffffffffffffffffffffffffffffff16145b61046e576040517f08c379a000000000000000000000000000000000000000000000000000000000815260040161046590610cc5565b60405180910390fd5b824710156104b1576040517f08c379a00000000000000000000000000000000000000000000000000000000081526004016104a890610d31565b60405180910390fd5b8373ffffffffffffffffffffffffffffffffffffffff166108fc849081150290604051600060405180830381858888f193505050501580156104f7573d6000803e3d6000fd5b508373ffffffffffffffffffffffffffffffffffffffff163373ffffffffffffffffffffffffffffffffffffffff167f405361271b30f2c0cd619975fd8b67c795661b1f2d1e75f446622c897425ce9e85858560405161055993929190610d9e565b60405180910390a350505050565b60016020528060005260406000206000915054906101000a900460ff1681565b60008054906101000a900473ffffffffffffffffffffffffffffffffffffffff1681565b60008054906101000a900473ffffffffffffffffffffffffffffffffffffffff1673ffffffffffffffffffffffffffffffffffffffff163373ffffffffffffffffffffffffffffffffffffffff1614610639576040517f08c379a000000000000000000000000000000000000000000000000000000000815260040161063090610c59565b60405180910390fd5b60018060008373ffffffffffffffffffffffffffffffffffffffff1673ffffffffffffffffffffffffffffffffffffffff16815260200190815260200160002060006101000a81548160ff0219169083151502179055508073ffffffffffffffffffffffffffffffffffffffff167fd50622eea19d594e0a1099e5e4095875b853c59ea070e69e0aee7696b2096f4160405160405180910390a250565b60026020528060005260406000206000915090505481565b600160003373ffffffffffffffffffffffffffffffffffffffff1673ffffffffffffffffffffffffffffffffffffffff16815260200190815260200160002060009054906101000a900460ff1680610791575060008054906101000a900473ffffffffffffffffffffffffffffffffffffffff1673ffffffffffffffffffffffffffffffffffffffff163373ffffffffffffffffffffffffffffffffffffffff16145b6107d0576040517f08c379a00000000000000000000000000000000000000000000000000000000081526004016107c790610cc5565b60405180910390fd5b6000600260008581526020019081526020016000205414610826576040517f08c379a000000000000000000000000000000000000000000000000000000000815260040161081d90610e1c565b60405180910390fd5b426002600085815260200190815260200160002081905550827f92e2a9ca6a9ddb258b3e09f11c7658152fa03947b7f2177af8ce38706096281283834260405161087293929190610e3c565b60405180910390a2505050565b6000806002600084815260200190815260200160002054905060008114159150915091565b6000819050919050565b6108b7816108a4565b82525050565b60006020820190506108d260008301846108ae565b92915050565b600080fd5b600080fd5b600073ffffffffffffffffffffffffffffffffffffffff82169050919050565b600061090d826108e2565b9050919050565b61091d81610902565b811461092857600080fd5b50565b60008135905061093a81610914565b92915050565b600060208284031215610956576109556108d8565b5b60006109648482850161092b565b91505092915050565b6000610978826108e2565b9050919050565b6109888161096d565b811461099357600080fd5b50565b6000813590506109a58161097f565b92915050565b6109b4816108a4565b81146109bf57600080fd5b50565b6000813590506109d1816109ab565b92915050565b600080fd5b600080fd5b600080fd5b60008083601f8401126109fc576109fb6109d7565b5b8235905067ffffffffffffffff811115610a1957610a186109dc565b5b602083019150836001820283011115610a3557610a346109e1565b5b9250929050565b60008060008060608587031215610a5657610a556108d8565b5b6000610a6487828801610996565b9450506020610a75878288016109c2565b935050604085013567ffffffffffffffff811115610a9657610a956108dd565b5b610aa2878288016109e6565b925092505092959194509250565b60008115159050919050565b610ac581610ab0565b82525050565b6000602082019050610ae06000830184610abc565b92915050565b610aef81610902565b82525050565b6000602082019050610b0a6000830184610ae6565b92915050565b6000819050919050565b610b2381610b10565b8114610b2e57600080fd5b50565b600081359050610b4081610b1a565b92915050565b600060208284031215610b5c57610b5b6108d8565b5b6000610b6a84828501610b31565b91505092915050565b600080600060408486031215610b8c57610b8b6108d8565b5b6000610b9a86828701610b31565b935050602084013567ffffffffffffffff811115610bbb57610bba6108dd565b5b610bc7868287016109e6565b92509250509250925092565b6000604082019050610be86000830185610abc565b610bf560208301846108ae565b9392505050565b600082825260208201905092915050565b7f4e6f7420617574686f72697a6564000000000000000000000000000000000000600082015250565b6000610c43600e83610bfc565b9150610c4e82610c0d565b602082019050919050565b60006020820190508181036000830152610c7281610c36565b9050919050565b7f4e6f742061206361726567697665720000000000000000000000000000000000600082015250565b6000610caf600f83610bfc565b9150610cba82610c79565b602082019050919050565b60006020820190508181036000830152610cde81610ca2565b9050919050565b7f496e73756666696369656e742066756e64730000000000000000000000000000600082015250565b6000610d1b601283610bfc565b9150610d2682610ce5565b602082019050919050565b60006020820190508181036000830152610d4a81610d0e565b9050919050565b82818337600083830152505050565b6000601f19601f8301169050919050565b6000610d7d8385610bfc565b9350610d8a838584610d51565b610d9383610d60565b840190509392505050565b6000604082019050610db360008301866108ae565b8181036020830152610dc6818486610d71565b9050949350505050565b7f446f63756d656e7420616c726561647920726567697374657265640000000000600082015250565b6000610e06601b83610bfc565b9150610e1182610dd0565b602082019050919050565b60006020820190508181036000830152610e3581610df9565b9050919050565b60006040820190508181036000830152610e57818587610d71565b9050610e6660208301846108ae565b94935050505056fea26469706673582212200a9cae132c6da7bb91117d0d8193126230a82a85fcacddded845eaab5cb4edd864736f6c63430008130033",
  "linkReferences": {},
  "deployedLinkReferences": {}
}